{
  "contractName": "StakingToken",
  "abi": [
    {
      "inputs": [
        {
          "internalType": "address",
          "name": "_owner",
          "type": "address"
        },
        {
          "internalType": "uint256",
          "name": "_supply",
          "type": "uint256"
        }
      ],
      "stateMutability": "nonpayable",
      "type": "constructor"
    },
    {
      "anonymous": false,
      "inputs": [
        {
          "indexed": true,
          "internalType": "address",
          "name": "owner",
          "type": "address"
        },
        {
          "indexed": true,
          "internalType": "address",
          "name": "spender",
          "type": "address"
        },
        {
          "indexed": false,
          "internalType": "uint256",
          "name": "value",
          "type": "uint256"
        }
      ],
      "name": "Approval",
      "type": "event"
    },
    {
      "anonymous": false,
      "inputs": [
        {
          "indexed": true,
          "internalType": "address",
          "name": "previousOwner",
          "type": "address"
        },
        {
          "indexed": true,
          "internalType": "address",
          "name": "newOwner",
          "type": "address"
        }
      ],
      "name": "OwnershipTransferred",
      "type": "event"
    },
    {
      "anonymous": false,
      "inputs": [
        {
          "indexed": true,
          "internalType": "address",
          "name": "from",
          "type": "address"
        },
        {
          "indexed": true,
          "internalType": "address",
          "name": "to",
          "type": "address"
        },
        {
          "indexed": false,
          "internalType": "uint256",
          "name": "value",
          "type": "uint256"
        }
      ],
      "name": "Transfer",
      "type": "event"
    },
    {
      "inputs": [
        {
          "internalType": "address",
          "name": "owner",
          "type": "address"
        },
        {
          "internalType": "address",
          "name": "spender",
          "type": "address"
        }
      ],
      "name": "allowance",
      "outputs": [
        {
          "internalType": "uint256",
          "name": "",
          "type": "uint256"
        }
      ],
      "stateMutability": "view",
      "type": "function",
      "constant": true
    },
    {
      "inputs": [
        {
          "internalType": "address",
          "name": "spender",
          "type": "address"
        },
        {
          "internalType": "uint256",
          "name": "amount",
          "type": "uint256"
        }
      ],
      "name": "approve",
      "outputs": [
        {
          "internalType": "bool",
          "name": "",
          "type": "bool"
        }
      ],
      "stateMutability": "nonpayable",
      "type": "function"
    },
    {
      "inputs": [
        {
          "internalType": "address",
          "name": "account",
          "type": "address"
        }
      ],
      "name": "balanceOf",
      "outputs": [
        {
          "internalType": "uint256",
          "name": "",
          "type": "uint256"
        }
      ],
      "stateMutability": "view",
      "type": "function",
      "constant": true
    },
    {
      "inputs": [],
      "name": "decimals",
      "outputs": [
        {
          "internalType": "uint8",
          "name": "",
          "type": "uint8"
        }
      ],
      "stateMutability": "view",
      "type": "function",
      "constant": true
    },
    {
      "inputs": [
        {
          "internalType": "address",
          "name": "spender",
          "type": "address"
        },
        {
          "internalType": "uint256",
          "name": "subtractedValue",
          "type": "uint256"
        }
      ],
      "name": "decreaseAllowance",
      "outputs": [
        {
          "internalType": "bool",
          "name": "",
          "type": "bool"
        }
      ],
      "stateMutability": "nonpayable",
      "type": "function"
    },
    {
      "inputs": [
        {
          "internalType": "address",
          "name": "spender",
          "type": "address"
        },
        {
          "internalType": "uint256",
          "name": "addedValue",
          "type": "uint256"
        }
      ],
      "name": "increaseAllowance",
      "outputs": [
        {
          "internalType": "bool",
          "name": "",
          "type": "bool"
        }
      ],
      "stateMutability": "nonpayable",
      "type": "function"
    },
    {
      "inputs": [],
      "name": "name",
      "outputs": [
        {
          "internalType": "string",
          "name": "",
          "type": "string"
        }
      ],
      "stateMutability": "view",
      "type": "function",
      "constant": true
    },
    {
      "inputs": [],
      "name": "owner",
      "outputs": [
        {
          "internalType": "address",
          "name": "",
          "type": "address"
        }
      ],
      "stateMutability": "view",
      "type": "function",
      "constant": true
    },
    {
      "inputs": [],
      "name": "renounceOwnership",
      "outputs": [],
      "stateMutability": "nonpayable",
      "type": "function"
    },
    {
      "inputs": [],
      "name": "symbol",
      "outputs": [
        {
          "internalType": "string",
          "name": "",
          "type": "string"
        }
      ],
      "stateMutability": "view",
      "type": "function",
      "constant": true
    },
    {
      "inputs": [],
      "name": "totalSupply",
      "outputs": [
        {
          "internalType": "uint256",
          "name": "",
          "type": "uint256"
        }
      ],
      "stateMutability": "view",
      "type": "function",
      "constant": true
    },
    {
      "inputs": [
        {
          "internalType": "address",
          "name": "to",
          "type": "address"
        },
        {
          "internalType": "uint256",
          "name": "amount",
          "type": "uint256"
        }
      ],
      "name": "transfer",
      "outputs": [
        {
          "internalType": "bool",
          "name": "",
          "type": "bool"
        }
      ],
      "stateMutability": "nonpayable",
      "type": "function"
    },
    {
      "inputs": [
        {
          "internalType": "address",
          "name": "from",
          "type": "address"
        },
        {
          "internalType": "address",
          "name": "to",
          "type": "address"
        },
        {
          "internalType": "uint256",
          "name": "amount",
          "type": "uint256"
        }
      ],
      "name": "transferFrom",
      "outputs": [
        {
          "internalType": "bool",
          "name": "",
          "type": "bool"
        }
      ],
      "stateMutability": "nonpayable",
      "type": "function"
    },
    {
      "inputs": [
        {
          "internalType": "address",
          "name": "newOwner",
          "type": "address"
        }
      ],
      "name": "transferOwnership",
      "outputs": [],
      "stateMutability": "nonpayable",
      "type": "function"
    },
    {
      "inputs": [
        {
          "internalType": "address",
          "name": "_address",
          "type": "address"
        }
      ],
      "name": "isStakeholder",
      "outputs": [
        {
          "internalType": "bool",
          "name": "",
          "type": "bool"
        },
        {
          "internalType": "uint256",
          "name": "",
          "type": "uint256"
        }
      ],
      "stateMutability": "view",
      "type": "function",
      "constant": true
    },
    {
      "inputs": [
        {
          "internalType": "address",
          "name": "_stakeholder",
          "type": "address"
        }
      ],
      "name": "addStakeholder",
      "outputs": [],
      "stateMutability": "nonpayable",
      "type": "function"
    },
    {
      "inputs": [
        {
          "internalType": "address",
          "name": "_stakeholder",
          "type": "address"
        }
      ],
      "name": "removeStakeholder",
      "outputs": [],
      "stateMutability": "nonpayable",
      "type": "function"
    },
    {
      "inputs": [
        {
          "internalType": "address",
          "name": "_stakeholder",
          "type": "address"
        }
      ],
      "name": "stakeOf",
      "outputs": [
        {
          "internalType": "uint256",
          "name": "",
          "type": "uint256"
        }
      ],
      "stateMutability": "view",
      "type": "function",
      "constant": true
    },
    {
      "inputs": [],
      "name": "totalStakes",
      "outputs": [
        {
          "internalType": "uint256",
          "name": "",
          "type": "uint256"
        }
      ],
      "stateMutability": "view",
      "type": "function",
      "constant": true
    },
    {
      "inputs": [
        {
          "internalType": "uint256",
          "name": "_amount",
          "type": "uint256"
        }
      ],
      "name": "createStake",
      "outputs": [],
      "stateMutability": "nonpayable",
      "type": "function"
    },
    {
      "inputs": [
        {
          "internalType": "uint256",
          "name": "_amount",
          "type": "uint256"
        }
      ],
      "name": "removeStake",
      "outputs": [],
      "stateMutability": "nonpayable",
      "type": "function"
    },
    {
      "inputs": [
        {
          "internalType": "address",
          "name": "_stakeholder",
          "type": "address"
        }
      ],
      "name": "rewardOf",
      "outputs": [
        {
          "internalType": "uint256",
          "name": "",
          "type": "uint256"
        }
      ],
      "stateMutability": "view",
      "type": "function",
      "constant": true
    },
    {
      "inputs": [],
      "name": "totalRewards",
      "outputs": [
        {
          "internalType": "uint256",
          "name": "",
          "type": "uint256"
        }
      ],
      "stateMutability": "view",
      "type": "function",
      "constant": true
    },
    {
      "inputs": [
        {
          "internalType": "address",
          "name": "_stakeholder",
          "type": "address"
        }
      ],
      "name": "calculateReward",
      "outputs": [
        {
          "internalType": "uint256",
          "name": "",
          "type": "uint256"
        }
      ],
      "stateMutability": "view",
      "type": "function",
      "constant": true
    },
    {
      "inputs": [],
      "name": "distributeRewards",
      "outputs": [],
      "stateMutability": "nonpayable",
      "type": "function"
    },
    {
      "inputs": [],
      "name": "withdrawReward",
      "outputs": [],
      "stateMutability": "nonpayable",
      "type": "function"
    }
  ],
  "bytecode": "0x60806040523480156200001157600080fd5b506040516200328338038062003283833981810160405281019062000037919062000606565b6040518060400160405280600b81526020017f4e75736120546f6b656e730000000000000000000000000000000000000000008152506040518060400160405280600481526020017f4e555341000000000000000000000000000000000000000000000000000000008152508160039080519060200190620000bb929190620004b1565b508060049080519060200190620000d4929190620004b1565b505050620000f7620000eb6200012260201b60201c565b6200012a60201b60201c565b620001098282620001f060201b60201c565b6200011a826200036860201b60201c565b5050620008f8565b600033905090565b6000600560009054906101000a900473ffffffffffffffffffffffffffffffffffffffff16905081600560006101000a81548173ffffffffffffffffffffffffffffffffffffffff021916908373ffffffffffffffffffffffffffffffffffffffff1602179055508173ffffffffffffffffffffffffffffffffffffffff168173ffffffffffffffffffffffffffffffffffffffff167f8be0079c531659141344cd1fd0a4f28419497f9722a3daafe3b4186f6b6457e060405160405180910390a35050565b600073ffffffffffffffffffffffffffffffffffffffff168273ffffffffffffffffffffffffffffffffffffffff160362000262576040517f08c379a00000000000000000000000000000000000000000000000000000000081526004016200025990620006ae565b60405180910390fd5b62000276600083836200047d60201b60201c565b80600260008282546200028a9190620006ff565b92505081905550806000808473ffffffffffffffffffffffffffffffffffffffff1673ffffffffffffffffffffffffffffffffffffffff1681526020019081526020016000206000828254620002e19190620006ff565b925050819055508173ffffffffffffffffffffffffffffffffffffffff16600073ffffffffffffffffffffffffffffffffffffffff167fddf252ad1be2c89b69c2b068fc378daa952ba7f163c4a11628f55a4df523b3ef836040516200034891906200076d565b60405180910390a362000364600083836200048260201b60201c565b5050565b620003786200012260201b60201c565b73ffffffffffffffffffffffffffffffffffffffff166200039e6200048760201b60201c565b73ffffffffffffffffffffffffffffffffffffffff1614620003f7576040517f08c379a0000000000000000000000000000000000000000000000000000000008152600401620003ee90620007da565b60405180910390fd5b600073ffffffffffffffffffffffffffffffffffffffff168173ffffffffffffffffffffffffffffffffffffffff160362000469576040517f08c379a0000000000000000000000000000000000000000000000000000000008152600401620004609062000872565b60405180910390fd5b6200047a816200012a60201b60201c565b50565b505050565b505050565b6000600560009054906101000a900473ffffffffffffffffffffffffffffffffffffffff16905090565b828054620004bf90620008c3565b90600052602060002090601f016020900481019282620004e357600085556200052f565b82601f10620004fe57805160ff19168380011785556200052f565b828001600101855582156200052f579182015b828111156200052e57825182559160200191906001019062000511565b5b5090506200053e919062000542565b5090565b5b808211156200055d57600081600090555060010162000543565b5090565b600080fd5b600073ffffffffffffffffffffffffffffffffffffffff82169050919050565b6000620005938262000566565b9050919050565b620005a58162000586565b8114620005b157600080fd5b50565b600081519050620005c5816200059a565b92915050565b6000819050919050565b620005e081620005cb565b8114620005ec57600080fd5b50565b6000815190506200060081620005d5565b92915050565b6000806040838503121562000620576200061f62000561565b5b60006200063085828601620005b4565b92505060206200064385828601620005ef565b9150509250929050565b600082825260208201905092915050565b7f45524332303a206d696e7420746f20746865207a65726f206164647265737300600082015250565b600062000696601f836200064d565b9150620006a3826200065e565b602082019050919050565b60006020820190508181036000830152620006c98162000687565b9050919050565b7f4e487b7100000000000000000000000000000000000000000000000000000000600052601160045260246000fd5b60006200070c82620005cb565b91506200071983620005cb565b9250827fffffffffffffffffffffffffffffffffffffffffffffffffffffffffffffffff03821115620007515762000750620006d0565b5b828201905092915050565b6200076781620005cb565b82525050565b60006020820190506200078460008301846200075c565b92915050565b7f4f776e61626c653a2063616c6c6572206973206e6f7420746865206f776e6572600082015250565b6000620007c26020836200064d565b9150620007cf826200078a565b602082019050919050565b60006020820190508181036000830152620007f581620007b3565b9050919050565b7f4f776e61626c653a206e6577206f776e657220697320746865207a65726f206160008201527f6464726573730000000000000000000000000000000000000000000000000000602082015250565b60006200085a6026836200064d565b91506200086782620007fc565b604082019050919050565b600060208201905081810360008301526200088d816200084b565b9050919050565b7f4e487b7100000000000000000000000000000000000000000000000000000000600052602260045260246000fd5b60006002820490506001821680620008dc57607f821691505b602082108103620008f257620008f162000894565b5b50919050565b61297b80620009086000396000f3fe608060405234801561001057600080fd5b506004361061018e5760003560e01c80638da5cb5b116100de578063bf9befb111610097578063dd62ed3e11610071578063dd62ed3e14610487578063e5c42fd1146104b7578063ef037b90146104d3578063f2fde38b146105045761018e565b8063bf9befb11461042f578063c885bc581461044d578063d82e3962146104575761018e565b80638da5cb5b1461035b578063939624ab1461037957806395d89b4114610395578063a457c2d7146103b3578063a9059cbb146103e3578063bcb0c2d7146104135761018e565b806323b872dd1161014b578063426233601161012557806342623360146102e75780636f4a2cd01461031757806370a0823114610321578063715018a6146103515761018e565b806323b872dd14610269578063313ce5671461029957806339509351146102b75761018e565b806306fdde0314610193578063095ea7b3146101b15780630e15561a146101e157806318160ddd146101ff5780631bf6ddae1461021d5780631d62ebd914610239575b600080fd5b61019b610520565b6040516101a89190611d16565b60405180910390f35b6101cb60048036038101906101c69190611dd1565b6105b2565b6040516101d89190611e2c565b60405180910390f35b6101e96105d5565b6040516101f69190611e56565b60405180910390f35b61020761069a565b6040516102149190611e56565b60405180910390f35b61023760048036038101906102329190611e71565b6106a4565b005b610253600480360381019061024e9190611e9e565b6107da565b6040516102609190611e56565b60405180910390f35b610283600480360381019061027e9190611ecb565b610823565b6040516102909190611e2c565b60405180910390f35b6102a1610852565b6040516102ae9190611f3a565b60405180910390f35b6102d160048036038101906102cc9190611dd1565b61085b565b6040516102de9190611e2c565b60405180910390f35b61030160048036038101906102fc9190611e9e565b610892565b60405161030e9190611e56565b60405180910390f35b61031f6108db565b005b61033b60048036038101906103369190611e9e565b610a65565b6040516103489190611e56565b60405180910390f35b610359610aad565b005b610363610b35565b6040516103709190611f64565b60405180910390f35b610393600480360381019061038e9190611e71565b610b5f565b005b61039d610cda565b6040516103aa9190611d16565b60405180910390f35b6103cd60048036038101906103c89190611dd1565b610d6c565b6040516103da9190611e2c565b60405180910390f35b6103fd60048036038101906103f89190611dd1565b610de3565b60405161040a9190611e2c565b60405180910390f35b61042d60048036038101906104289190611e9e565b610e06565b005b610437610f15565b6040516104449190611e56565b60405180910390f35b610455610fd9565b005b610471600480360381019061046c9190611e9e565b61106f565b60405161047e9190611e56565b60405180910390f35b6104a1600480360381019061049c9190611f7f565b6110c4565b6040516104ae9190611e56565b60405180910390f35b6104d160048036038101906104cc9190611e9e565b61114b565b005b6104ed60048036038101906104e89190611e9e565b6111c6565b6040516104fb929190611fbf565b60405180910390f35b61051e60048036038101906105199190611e9e565b611279565b005b60606003805461052f90612017565b80601f016020809104026020016040519081016040528092919081815260200182805461055b90612017565b80156105a85780601f1061057d576101008083540402835291602001916105a8565b820191906000526020600020905b81548152906001019060200180831161058b57829003601f168201915b5050505050905090565b6000806105bd611370565b90506105ca818585611378565b600191505092915050565b6000806000905060005b6006805490508110156106925761067c600860006006848154811061060757610606612048565b5b9060005260206000200160009054906101000a900473ffffffffffffffffffffffffffffffffffffffff1673ffffffffffffffffffffffffffffffffffffffff1673ffffffffffffffffffffffffffffffffffffffff168152602001908152602001600020548361154190919063ffffffff16565b915060018161068b91906120a6565b90506105df565b508091505090565b6000600254905090565b600081116106e7576040517f08c379a00000000000000000000000000000000000000000000000000000000081526004016106de90612148565b60405180910390fd5b6106f13382611557565b6000600760003373ffffffffffffffffffffffffffffffffffffffff1673ffffffffffffffffffffffffffffffffffffffff1681526020019081526020016000205403610742576107413361114b565b5b61079481600760003373ffffffffffffffffffffffffffffffffffffffff1673ffffffffffffffffffffffffffffffffffffffff1681526020019081526020016000205461154190919063ffffffff16565b600760003373ffffffffffffffffffffffffffffffffffffffff1673ffffffffffffffffffffffffffffffffffffffff1681526020019081526020016000208190555050565b6000600860008373ffffffffffffffffffffffffffffffffffffffff1673ffffffffffffffffffffffffffffffffffffffff168152602001908152602001600020549050919050565b60008061082e611370565b905061083b85828561172d565b6108468585856117b9565b60019150509392505050565b60006012905090565b600080610866611370565b905061088781858561087885896110c4565b61088291906120a6565b611378565b600191505092915050565b6000600760008373ffffffffffffffffffffffffffffffffffffffff1673ffffffffffffffffffffffffffffffffffffffff168152602001908152602001600020549050919050565b6108e3611370565b73ffffffffffffffffffffffffffffffffffffffff16610901610b35565b73ffffffffffffffffffffffffffffffffffffffff1614610957576040517f08c379a000000000000000000000000000000000000000000000000000000000815260040161094e906121b4565b60405180910390fd5b60005b600680549050811015610a625760006006828154811061097d5761097c612048565b5b9060005260206000200160009054906101000a900473ffffffffffffffffffffffffffffffffffffffff16905060006109b58261106f565b9050610a0981600860008573ffffffffffffffffffffffffffffffffffffffff1673ffffffffffffffffffffffffffffffffffffffff1681526020019081526020016000205461154190919063ffffffff16565b600860008473ffffffffffffffffffffffffffffffffffffffff1673ffffffffffffffffffffffffffffffffffffffff168152602001908152602001600020819055505050600181610a5b91906120a6565b905061095a565b50565b60008060008373ffffffffffffffffffffffffffffffffffffffff1673ffffffffffffffffffffffffffffffffffffffff168152602001908152602001600020549050919050565b610ab5611370565b73ffffffffffffffffffffffffffffffffffffffff16610ad3610b35565b73ffffffffffffffffffffffffffffffffffffffff1614610b29576040517f08c379a0000000000000000000000000000000000000000000000000000000008152600401610b20906121b4565b60405180910390fd5b610b336000611a38565b565b6000600560009054906101000a900473ffffffffffffffffffffffffffffffffffffffff16905090565b6000600760003373ffffffffffffffffffffffffffffffffffffffff1673ffffffffffffffffffffffffffffffffffffffff16815260200190815260200160002054905081811015610be6576040517f08c379a0000000000000000000000000000000000000000000000000000000008152600401610bdd90612220565b60405180910390fd5b610c3882600760003373ffffffffffffffffffffffffffffffffffffffff1673ffffffffffffffffffffffffffffffffffffffff16815260200190815260200160002054611afe90919063ffffffff16565b600760003373ffffffffffffffffffffffffffffffffffffffff1673ffffffffffffffffffffffffffffffffffffffff168152602001908152602001600020819055506000600760003373ffffffffffffffffffffffffffffffffffffffff1673ffffffffffffffffffffffffffffffffffffffff1681526020019081526020016000205403610ccc57610ccb33610e06565b5b610cd63383611b14565b5050565b606060048054610ce990612017565b80601f0160208091040260200160405190810160405280929190818152602001828054610d1590612017565b8015610d625780601f10610d3757610100808354040283529160200191610d62565b820191906000526020600020905b815481529060010190602001808311610d4557829003601f168201915b5050505050905090565b600080610d77611370565b90506000610d8582866110c4565b905083811015610dca576040517f08c379a0000000000000000000000000000000000000000000000000000000008152600401610dc1906122b2565b60405180910390fd5b610dd78286868403611378565b60019250505092915050565b600080610dee611370565b9050610dfb8185856117b9565b600191505092915050565b600080610e12836111c6565b915091508115610f105760066001600680549050610e3091906122d2565b81548110610e4157610e40612048565b5b9060005260206000200160009054906101000a900473ffffffffffffffffffffffffffffffffffffffff1660068281548110610e8057610e7f612048565b5b9060005260206000200160006101000a81548173ffffffffffffffffffffffffffffffffffffffff021916908373ffffffffffffffffffffffffffffffffffffffff1602179055506006805480610eda57610ed9612306565b5b6001900381819060005260206000200160006101000a81549073ffffffffffffffffffffffffffffffffffffffff021916905590555b505050565b6000806000905060005b600680549050811015610fd157610fbc6007600060068481548110610f4757610f46612048565b5b9060005260206000200160009054906101000a900473ffffffffffffffffffffffffffffffffffffffff1673ffffffffffffffffffffffffffffffffffffffff1673ffffffffffffffffffffffffffffffffffffffff168152602001908152602001600020548361154190919063ffffffff16565b91508080610fc990612335565b915050610f1f565b508091505090565b6000600860003373ffffffffffffffffffffffffffffffffffffffff1673ffffffffffffffffffffffffffffffffffffffff1681526020019081526020016000205490506000600860003373ffffffffffffffffffffffffffffffffffffffff1673ffffffffffffffffffffffffffffffffffffffff1681526020019081526020016000208190555061106c3382611b14565b50565b60006064600760008473ffffffffffffffffffffffffffffffffffffffff1673ffffffffffffffffffffffffffffffffffffffff168152602001908152602001600020546110bd91906123ac565b9050919050565b6000600160008473ffffffffffffffffffffffffffffffffffffffff1673ffffffffffffffffffffffffffffffffffffffff16815260200190815260200160002060008373ffffffffffffffffffffffffffffffffffffffff1673ffffffffffffffffffffffffffffffffffffffff16815260200190815260200160002054905092915050565b6000611156826111c6565b509050806111c2576006829080600181540180825580915050600190039060005260206000200160009091909190916101000a81548173ffffffffffffffffffffffffffffffffffffffff021916908373ffffffffffffffffffffffffffffffffffffffff1602179055505b5050565b60008060005b60068054905081101561126b57600681815481106111ed576111ec612048565b5b9060005260206000200160009054906101000a900473ffffffffffffffffffffffffffffffffffffffff1673ffffffffffffffffffffffffffffffffffffffff168473ffffffffffffffffffffffffffffffffffffffff1603611257576001819250925050611274565b60018161126491906120a6565b90506111cc565b50600080915091505b915091565b611281611370565b73ffffffffffffffffffffffffffffffffffffffff1661129f610b35565b73ffffffffffffffffffffffffffffffffffffffff16146112f5576040517f08c379a00000000000000000000000000000000000000000000000000000000081526004016112ec906121b4565b60405180910390fd5b600073ffffffffffffffffffffffffffffffffffffffff168173ffffffffffffffffffffffffffffffffffffffff1603611364576040517f08c379a000000000000000000000000000000000000000000000000000000000815260040161135b9061244f565b60405180910390fd5b61136d81611a38565b50565b600033905090565b600073ffffffffffffffffffffffffffffffffffffffff168373ffffffffffffffffffffffffffffffffffffffff16036113e7576040517f08c379a00000000000000000000000000000000000000000000000000000000081526004016113de906124e1565b60405180910390fd5b600073ffffffffffffffffffffffffffffffffffffffff168273ffffffffffffffffffffffffffffffffffffffff1603611456576040517f08c379a000000000000000000000000000000000000000000000000000000000815260040161144d90612573565b60405180910390fd5b80600160008573ffffffffffffffffffffffffffffffffffffffff1673ffffffffffffffffffffffffffffffffffffffff16815260200190815260200160002060008473ffffffffffffffffffffffffffffffffffffffff1673ffffffffffffffffffffffffffffffffffffffff168152602001908152602001600020819055508173ffffffffffffffffffffffffffffffffffffffff168373ffffffffffffffffffffffffffffffffffffffff167f8c5be1e5ebec7d5bd14f71427d1e84f3dd0314c0f7b2291e5b200ac8c7c3b925836040516115349190611e56565b60405180910390a3505050565b6000818361154f91906120a6565b905092915050565b600073ffffffffffffffffffffffffffffffffffffffff168273ffffffffffffffffffffffffffffffffffffffff16036115c6576040517f08c379a00000000000000000000000000000000000000000000000000000000081526004016115bd90612605565b60405180910390fd5b6115d282600083611c73565b60008060008473ffffffffffffffffffffffffffffffffffffffff1673ffffffffffffffffffffffffffffffffffffffff16815260200190815260200160002054905081811015611658576040517f08c379a000000000000000000000000000000000000000000000000000000000815260040161164f90612697565b60405180910390fd5b8181036000808573ffffffffffffffffffffffffffffffffffffffff1673ffffffffffffffffffffffffffffffffffffffff1681526020019081526020016000208190555081600260008282546116af91906122d2565b92505081905550600073ffffffffffffffffffffffffffffffffffffffff168373ffffffffffffffffffffffffffffffffffffffff167fddf252ad1be2c89b69c2b068fc378daa952ba7f163c4a11628f55a4df523b3ef846040516117149190611e56565b60405180910390a361172883600084611c78565b505050565b600061173984846110c4565b90507fffffffffffffffffffffffffffffffffffffffffffffffffffffffffffffffff81146117b357818110156117a5576040517f08c379a000000000000000000000000000000000000000000000000000000000815260040161179c90612703565b60405180910390fd5b6117b28484848403611378565b5b50505050565b600073ffffffffffffffffffffffffffffffffffffffff168373ffffffffffffffffffffffffffffffffffffffff1603611828576040517f08c379a000000000000000000000000000000000000000000000000000000000815260040161181f90612795565b60405180910390fd5b600073ffffffffffffffffffffffffffffffffffffffff168273ffffffffffffffffffffffffffffffffffffffff1603611897576040517f08c379a000000000000000000000000000000000000000000000000000000000815260040161188e90612827565b60405180910390fd5b6118a2838383611c73565b60008060008573ffffffffffffffffffffffffffffffffffffffff1673ffffffffffffffffffffffffffffffffffffffff16815260200190815260200160002054905081811015611928576040517f08c379a000000000000000000000000000000000000000000000000000000000815260040161191f906128b9565b60405180910390fd5b8181036000808673ffffffffffffffffffffffffffffffffffffffff1673ffffffffffffffffffffffffffffffffffffffff16815260200190815260200160002081905550816000808573ffffffffffffffffffffffffffffffffffffffff1673ffffffffffffffffffffffffffffffffffffffff16815260200190815260200160002060008282546119bb91906120a6565b925050819055508273ffffffffffffffffffffffffffffffffffffffff168473ffffffffffffffffffffffffffffffffffffffff167fddf252ad1be2c89b69c2b068fc378daa952ba7f163c4a11628f55a4df523b3ef84604051611a1f9190611e56565b60405180910390a3611a32848484611c78565b50505050565b6000600560009054906101000a900473ffffffffffffffffffffffffffffffffffffffff16905081600560006101000a81548173ffffffffffffffffffffffffffffffffffffffff021916908373ffffffffffffffffffffffffffffffffffffffff1602179055508173ffffffffffffffffffffffffffffffffffffffff168173ffffffffffffffffffffffffffffffffffffffff167f8be0079c531659141344cd1fd0a4f28419497f9722a3daafe3b4186f6b6457e060405160405180910390a35050565b60008183611b0c91906122d2565b905092915050565b600073ffffffffffffffffffffffffffffffffffffffff168273ffffffffffffffffffffffffffffffffffffffff1603611b83576040517f08c379a0000000000000000000000000000000000000000000000000000000008152600401611b7a90612925565b60405180910390fd5b611b8f60008383611c73565b8060026000828254611ba191906120a6565b92505081905550806000808473ffffffffffffffffffffffffffffffffffffffff1673ffffffffffffffffffffffffffffffffffffffff1681526020019081526020016000206000828254611bf691906120a6565b925050819055508173ffffffffffffffffffffffffffffffffffffffff16600073ffffffffffffffffffffffffffffffffffffffff167fddf252ad1be2c89b69c2b068fc378daa952ba7f163c4a11628f55a4df523b3ef83604051611c5b9190611e56565b60405180910390a3611c6f60008383611c78565b5050565b505050565b505050565b600081519050919050565b600082825260208201905092915050565b60005b83811015611cb7578082015181840152602081019050611c9c565b83811115611cc6576000848401525b50505050565b6000601f19601f8301169050919050565b6000611ce882611c7d565b611cf28185611c88565b9350611d02818560208601611c99565b611d0b81611ccc565b840191505092915050565b60006020820190508181036000830152611d308184611cdd565b905092915050565b600080fd5b600073ffffffffffffffffffffffffffffffffffffffff82169050919050565b6000611d6882611d3d565b9050919050565b611d7881611d5d565b8114611d8357600080fd5b50565b600081359050611d9581611d6f565b92915050565b6000819050919050565b611dae81611d9b565b8114611db957600080fd5b50565b600081359050611dcb81611da5565b92915050565b60008060408385031215611de857611de7611d38565b5b6000611df685828601611d86565b9250506020611e0785828601611dbc565b9150509250929050565b60008115159050919050565b611e2681611e11565b82525050565b6000602082019050611e416000830184611e1d565b92915050565b611e5081611d9b565b82525050565b6000602082019050611e6b6000830184611e47565b92915050565b600060208284031215611e8757611e86611d38565b5b6000611e9584828501611dbc565b91505092915050565b600060208284031215611eb457611eb3611d38565b5b6000611ec284828501611d86565b91505092915050565b600080600060608486031215611ee457611ee3611d38565b5b6000611ef286828701611d86565b9350506020611f0386828701611d86565b9250506040611f1486828701611dbc565b9150509250925092565b600060ff82169050919050565b611f3481611f1e565b82525050565b6000602082019050611f4f6000830184611f2b565b92915050565b611f5e81611d5d565b82525050565b6000602082019050611f796000830184611f55565b92915050565b60008060408385031215611f9657611f95611d38565b5b6000611fa485828601611d86565b9250506020611fb585828601611d86565b9150509250929050565b6000604082019050611fd46000830185611e1d565b611fe16020830184611e47565b9392505050565b7f4e487b7100000000000000000000000000000000000000000000000000000000600052602260045260246000fd5b6000600282049050600182168061202f57607f821691505b60208210810361204257612041611fe8565b5b50919050565b7f4e487b7100000000000000000000000000000000000000000000000000000000600052603260045260246000fd5b7f4e487b7100000000000000000000000000000000000000000000000000000000600052601160045260246000fd5b60006120b182611d9b565b91506120bc83611d9b565b9250827fffffffffffffffffffffffffffffffffffffffffffffffffffffffffffffffff038211156120f1576120f0612077565b5b828201905092915050565b7f4a756d6c6168206861727573206c656269682064617269203000000000000000600082015250565b6000612132601983611c88565b915061213d826120fc565b602082019050919050565b6000602082019050818103600083015261216181612125565b9050919050565b7f4f776e61626c653a2063616c6c6572206973206e6f7420746865206f776e6572600082015250565b600061219e602083611c88565b91506121a982612168565b602082019050919050565b600060208201905081810360008301526121cd81612191565b9050919050565b7f53616c646f207967206469746172696b207465726c616c752062616e79616b00600082015250565b600061220a601f83611c88565b9150612215826121d4565b602082019050919050565b60006020820190508181036000830152612239816121fd565b9050919050565b7f45524332303a2064656372656173656420616c6c6f77616e63652062656c6f7760008201527f207a65726f000000000000000000000000000000000000000000000000000000602082015250565b600061229c602583611c88565b91506122a782612240565b604082019050919050565b600060208201905081810360008301526122cb8161228f565b9050919050565b60006122dd82611d9b565b91506122e883611d9b565b9250828210156122fb576122fa612077565b5b828203905092915050565b7f4e487b7100000000000000000000000000000000000000000000000000000000600052603160045260246000fd5b600061234082611d9b565b91507fffffffffffffffffffffffffffffffffffffffffffffffffffffffffffffffff820361237257612371612077565b5b600182019050919050565b7f4e487b7100000000000000000000000000000000000000000000000000000000600052601260045260246000fd5b60006123b782611d9b565b91506123c283611d9b565b9250826123d2576123d161237d565b5b828204905092915050565b7f4f776e61626c653a206e6577206f776e657220697320746865207a65726f206160008201527f6464726573730000000000000000000000000000000000000000000000000000602082015250565b6000612439602683611c88565b9150612444826123dd565b604082019050919050565b600060208201905081810360008301526124688161242c565b9050919050565b7f45524332303a20617070726f76652066726f6d20746865207a65726f2061646460008201527f7265737300000000000000000000000000000000000000000000000000000000602082015250565b60006124cb602483611c88565b91506124d68261246f565b604082019050919050565b600060208201905081810360008301526124fa816124be565b9050919050565b7f45524332303a20617070726f766520746f20746865207a65726f20616464726560008201527f7373000000000000000000000000000000000000000000000000000000000000602082015250565b600061255d602283611c88565b915061256882612501565b604082019050919050565b6000602082019050818103600083015261258c81612550565b9050919050565b7f45524332303a206275726e2066726f6d20746865207a65726f2061646472657360008201527f7300000000000000000000000000000000000000000000000000000000000000602082015250565b60006125ef602183611c88565b91506125fa82612593565b604082019050919050565b6000602082019050818103600083015261261e816125e2565b9050919050565b7f45524332303a206275726e20616d6f756e7420657863656564732062616c616e60008201527f6365000000000000000000000000000000000000000000000000000000000000602082015250565b6000612681602283611c88565b915061268c82612625565b604082019050919050565b600060208201905081810360008301526126b081612674565b9050919050565b7f45524332303a20696e73756666696369656e7420616c6c6f77616e6365000000600082015250565b60006126ed601d83611c88565b91506126f8826126b7565b602082019050919050565b6000602082019050818103600083015261271c816126e0565b9050919050565b7f45524332303a207472616e736665722066726f6d20746865207a65726f20616460008201527f6472657373000000000000000000000000000000000000000000000000000000602082015250565b600061277f602583611c88565b915061278a82612723565b604082019050919050565b600060208201905081810360008301526127ae81612772565b9050919050565b7f45524332303a207472616e7366657220746f20746865207a65726f206164647260008201527f6573730000000000000000000000000000000000000000000000000000000000602082015250565b6000612811602383611c88565b915061281c826127b5565b604082019050919050565b6000602082019050818103600083015261284081612804565b9050919050565b7f45524332303a207472616e7366657220616d6f756e742065786365656473206260008201527f616c616e63650000000000000000000000000000000000000000000000000000602082015250565b60006128a3602683611c88565b91506128ae82612847565b604082019050919050565b600060208201905081810360008301526128d281612896565b9050919050565b7f45524332303a206d696e7420746f20746865207a65726f206164647265737300600082015250565b600061290f601f83611c88565b915061291a826128d9565b602082019050919050565b6000602082019050818103600083015261293e81612902565b905091905056fea26469706673582212209aa92e902d7b6f6c07a94d712d185af54e9e1c21c43a8fa38c2a9b5e11a39bff64736f6c634300080e0033",
  "immutableReferences": {},
  "source": "// SPDX-License-Identifier: MIT\r\npragma solidity >=0.4.22 <0.9.0;\r\n\r\nimport \"@openzeppelin/contracts/access/Ownable.sol\";\r\nimport \"@openzeppelin/contracts/token/ERC20/ERC20.sol\";\r\nimport \"@openzeppelin/contracts/utils/math/SafeMath.sol\";\r\n\r\ncontract StakingToken is ERC20, Ownable {\r\n    using SafeMath for uint256;\r\n\r\n    address[] internal stakeholders; //nasabh\r\n    mapping(address => uint256) internal stakes; //saldo nasabah\r\n    mapping(address => uint256) internal rewards; // bonus nasabah\r\n\r\n    constructor(address _owner, uint256 _supply)\r\n        Ownable()\r\n        ERC20(\"Nusa Tokens\", \"NUSA\")\r\n    {\r\n        _mint(_owner, _supply);\r\n        transferOwnership(_owner);\r\n    }\r\n\r\n    function isStakeholder(address _address)\r\n        public\r\n        view\r\n        returns (bool, uint256)\r\n    {\r\n        for (uint256 s = 0; s < stakeholders.length; s += 1) {\r\n            if (_address == stakeholders[s]) return (true, s);\r\n        }\r\n        return (false, 0);\r\n    }\r\n\r\n    function addStakeholder(address _stakeholder) public {\r\n        (bool _isStakeholder, ) = isStakeholder(_stakeholder);\r\n        if (!_isStakeholder) stakeholders.push(_stakeholder);\r\n    }\r\n\r\n    function removeStakeholder(address _stakeholder) public {\r\n        (bool _isStakeholder, uint256 s) = isStakeholder(_stakeholder);\r\n        if (_isStakeholder) {\r\n            stakeholders[s] = stakeholders[stakeholders.length - 1];\r\n            stakeholders.pop();\r\n        }\r\n    }\r\n\r\n    // lihat saldo stakeholder yg di depo\r\n    function stakeOf(address _stakeholder) public view returns (uint256) {\r\n        return stakes[_stakeholder];\r\n    }\r\n\r\n    // lihat depo keseluruhan\r\n    function totalStakes() public view returns (uint256) {\r\n        uint256 _totalStakes = 0;\r\n        for (uint256 i = 0; i < stakeholders.length; i++) {\r\n            _totalStakes = _totalStakes.add(stakes[stakeholders[i]]); //+=\r\n        }\r\n        return _totalStakes;\r\n    }\r\n\r\n    // depo ke smart contract\r\n    function createStake(uint256 _amount) public {\r\n        require(_amount > 0, \"Jumlah harus lebih dari 0\");\r\n        _burn(msg.sender, _amount);\r\n        if (stakes[msg.sender] == 0) addStakeholder(msg.sender);\r\n        stakes[msg.sender] = stakes[msg.sender].add(_amount); // +=\r\n    }\r\n\r\n    // witdrawl dari smart  contract\r\n    function removeStake(uint256 _amount) public {\r\n        uint256 balance = stakes[msg.sender];\r\n        require(balance >= _amount, \"Saldo yg ditarik terlalu banyak\");\r\n\r\n        stakes[msg.sender] = stakes[msg.sender].sub(_amount); // -=\r\n        if (stakes[msg.sender] == 0) removeStakeholder(msg.sender);\r\n        _mint(msg.sender, _amount);\r\n    }\r\n\r\n    //Perhitungan Bonus Nasabah\r\n    //jml bonus yg di dapat per nasabah\r\n    function rewardOf(address _stakeholder) public view returns (uint256) {\r\n        return rewards[_stakeholder];\r\n    }\r\n\r\n    //total bonus keseluruhan nasabah\r\n    function totalRewards() public view returns (uint256) {\r\n        uint256 _totalRewards = 0;\r\n        for (uint256 s = 0; s < stakeholders.length; s += 1) {\r\n            _totalRewards = _totalRewards.add(rewards[stakeholders[s]]);\r\n        }\r\n        return _totalRewards;\r\n    }\r\n\r\n    // perhitungan bonus 1% dri depo\r\n    function calculateReward(address _stakeholder)\r\n        public\r\n        view\r\n        returns (uint256)\r\n    {\r\n        return stakes[_stakeholder] / 100;\r\n    }\r\n\r\n    function distributeRewards() public onlyOwner {\r\n        for (uint256 s = 0; s < stakeholders.length; s += 1) {\r\n            address stakeholder = stakeholders[s];\r\n            uint256 reward = calculateReward(stakeholder);\r\n            rewards[stakeholder] = rewards[stakeholder].add(reward);\r\n        }\r\n    }\r\n\r\n    //ambil bonus\r\n    function withdrawReward() public {\r\n        uint256 reward = rewards[msg.sender];\r\n        rewards[msg.sender] = 0;\r\n        // removeStake(reward);\r\n        _mint(msg.sender, reward);\r\n    }\r\n}\r\n",
  "sourcePath": "D:\\coding\\staking-erc20\\contracts\\StakingToken.sol",
  "compiler": {
    "name": "solc",
    "version": "0.8.14+commit.80d49f37.Emscripten.clang"
  },
  "schemaVersion": "3.4.7",
  "updatedAt": "2022-06-19T12:31:25.330Z",
  "networkType": "ethereum",
  "devdoc": {
    "kind": "dev",
    "methods": {
      "allowance(address,address)": {
        "details": "See {IERC20-allowance}."
      },
      "approve(address,uint256)": {
        "details": "See {IERC20-approve}. NOTE: If `amount` is the maximum `uint256`, the allowance is not updated on `transferFrom`. This is semantically equivalent to an infinite approval. Requirements: - `spender` cannot be the zero address."
      },
      "balanceOf(address)": {
        "details": "See {IERC20-balanceOf}."
      },
      "decimals()": {
        "details": "Returns the number of decimals used to get its user representation. For example, if `decimals` equals `2`, a balance of `505` tokens should be displayed to a user as `5.05` (`505 / 10 ** 2`). Tokens usually opt for a value of 18, imitating the relationship between Ether and Wei. This is the value {ERC20} uses, unless this function is overridden; NOTE: This information is only used for _display_ purposes: it in no way affects any of the arithmetic of the contract, including {IERC20-balanceOf} and {IERC20-transfer}."
      },
      "decreaseAllowance(address,uint256)": {
        "details": "Atomically decreases the allowance granted to `spender` by the caller. This is an alternative to {approve} that can be used as a mitigation for problems described in {IERC20-approve}. Emits an {Approval} event indicating the updated allowance. Requirements: - `spender` cannot be the zero address. - `spender` must have allowance for the caller of at least `subtractedValue`."
      },
      "increaseAllowance(address,uint256)": {
        "details": "Atomically increases the allowance granted to `spender` by the caller. This is an alternative to {approve} that can be used as a mitigation for problems described in {IERC20-approve}. Emits an {Approval} event indicating the updated allowance. Requirements: - `spender` cannot be the zero address."
      },
      "name()": {
        "details": "Returns the name of the token."
      },
      "owner()": {
        "details": "Returns the address of the current owner."
      },
      "renounceOwnership()": {
        "details": "Leaves the contract without owner. It will not be possible to call `onlyOwner` functions anymore. Can only be called by the current owner. NOTE: Renouncing ownership will leave the contract without an owner, thereby removing any functionality that is only available to the owner."
      },
      "symbol()": {
        "details": "Returns the symbol of the token, usually a shorter version of the name."
      },
      "totalSupply()": {
        "details": "See {IERC20-totalSupply}."
      },
      "transfer(address,uint256)": {
        "details": "See {IERC20-transfer}. Requirements: - `to` cannot be the zero address. - the caller must have a balance of at least `amount`."
      },
      "transferFrom(address,address,uint256)": {
        "details": "See {IERC20-transferFrom}. Emits an {Approval} event indicating the updated allowance. This is not required by the EIP. See the note at the beginning of {ERC20}. NOTE: Does not update the allowance if the current allowance is the maximum `uint256`. Requirements: - `from` and `to` cannot be the zero address. - `from` must have a balance of at least `amount`. - the caller must have allowance for ``from``'s tokens of at least `amount`."
      },
      "transferOwnership(address)": {
        "details": "Transfers ownership of the contract to a new account (`newOwner`). Can only be called by the current owner."
      }
    },
    "version": 1
  },
  "userdoc": {
    "kind": "user",
    "methods": {},
    "version": 1
  }
}